:020000040800F2
:10000000100F002001010008410F0008110B00082B
:100010003D0F0008F1080008BB27000800000000A1
:100020000000000000000000000000006D1B000840
:1000300005090008000000006F010008811C00088D
:100040001B0100081B0100081B0100081B01000820
:100050001B0100081B0100081B0100081B01000810
:100060001B0100081B0100081B0100081B01000800
:100070001B0100081B0100081B0100081B010008F0
:100080001B0100081B0100081B0100081B010008E0
:100090001B0100081B0100081B0100081B010008D0
:1000A0001B0100081B0100081B0100081B010008C0
:1000B0001B0100081B010008DD1D00081B010008D2
:1000C0001B0100081B0100081B0100081B010008A0
:1000D0001B010008FD2400081B0100081B0100088B
:1000E0001B0100081B0100081B010008DFF80CD0F1
:1000F00000F0A4FB00480047C9310008100F0020A1
:100100000648804706480047FEE7FEE7FEE7FEE7B1
:10011000FEE7FEE7FEE7FEE7FEE7FEE7911C0008CC
:10012000ED000008EFF3108072B6704780F310887E
:1001300070471F484FF0FF010170002080F30988CD
:100140001C48016881F308881B48012101701B4885
:100150004FF08051016062B6FEE718484FF08051C1
:100160000160704715484FF080510160704772B6CA
:10017000EFF3098028B1203880E8F00F10490968B2
:10018000086000B50F4880475DF804EB0E480F4942
:100190000A7802700A480E490A680260106890E8FE
:1001A000F00F203080F309884EF0040E62B67047DD
:1001B00022ED00E0500000203900002004ED00E0B6
:1001C00040000020AD1400082E0000202F00002069
:1001D00048000020F0B480EA0102D40F4200B2EBE4
:1001E000410F02D20246084611464A0042D0C30DD2
:1001F000DDB2C1F3C752AD1A202D35DAC1F31601B5
:1002000041F4000204B15242C5F1200602FA06F19F
:100210002A411044B3EBD05F23D0C4B1012DA0EB31
:10022000C35009DCF0BC4FF0004202EAC352DBB21B
:1002300000F5000000F02EB9400000F1807000EBE6
:10024000C350A0F1807040EAD170490009E049082C
:1002500041EAC071A0EBC35000F50000400800EB7C
:10026000C350F0BC00F00DB96142012202EB410124
:10027000001BF6E7F0BC704781F00041AAE780F070
:100280000040A7E72DE9F04D81EA030404F0004B9C
:1002900021F0004514464FF0000A23F0004150EAD7
:1002A000050220D054EA01021DD0C5F30A570246C8
:1002B000C5F31303C1F31300C1F30A5640F48015CC
:1002C00043F48013A7EB0608101BD64608F2FD384E
:1002D00073EB050002D308F1010801E092185B41BD
:1002E000B8F1000F03DA00200146BDE8F08D0020D0
:1002F0004FF48011064684460EE0171B73EB05078A
:1003000005D3121B63EB050306434CEA010C4908B5
:100310004FEA300092185B4150EA0107EDD152EAF2
:10032000030012D082EA040083EA0501084305D0E5
:10033000101BAB4106D20122002306E000224FF041
:10034000004302E06FF0010253101AEB06004CEB81
:10035000085110EB0A0041EB0B01BDE8F04D00F035
:10036000C7B896230022114600F094B800F000426E
:1003700030F000400AD0C10D01F56071C0F31600E5
:1003800042EA0151C208400711437047002001466C
:10039000704701F0004330B421F0004150EA0102FF
:1003A00006D00A0DA2F56072C1F31301002A02DC27
:1003B00030BC00207047440F44EAC104C100E0187B
:1003C00030BC00EBC25000F05CB80000002801DB3C
:1003D000C0F10040002901DBC1F1004181427047BA
:1003E000002801DBC0F10040002901DBC1F1004120
:1003F0008842704730B50B46014600202022012478
:1004000009E021FA02F59D4205D303FA02F5491BE2
:1004100004FA02F52844151EA2F10102F1DC30BDF8
:100420002DE9F05F0546002092469B468846064629
:10043000814640241BE0284641464746224600F0BC
:100440001EFA53465A46C01A914110D31146184617
:10045000224600F005FA2D1A67EB01084F462246A6
:100460000120002100F0FCF917EB00094E41201E8D
:10047000A4F10104DFDC484631462A464346BDE884
:10048000F09F0029A8BF7047401C490008BF20F01A
:100490000100704710B4B0FA80FC00FA0CF050EA8A
:1004A000010404BF10BC704749B1CCF1200421FA0B
:1004B00004F411FA0CF118BF012121430843A3EB06
:1004C0000C01CB1D4FEA00614FEA102042BF002013
:1004D00010BC704700EBC35010440029A4BF10BCEF
:1004E0007047401C490008BF20F0010010BC704755
:1004F00010B5141E73F1000408DA401C41F100012C
:1005000092185B411A4301D120F0010010BD2DE982
:10051000F04D92469B4611B1B1FA81F202E0B0FA79
:1005200080F22032904600F09BF904460F4640EAE4
:100530000A0041EA0B0153465A46084313D01146BC
:1005400053EA010019D0C8F14002504600F097F973
:1005500005460E4650465946424600F081F908438A
:1005600005D0012004E020463946BDE8F08D00208A
:10057000054346EAE0762C4337430A986305E40ACC
:10058000A0EB08000022FD0A44EA47540A3002D5D5
:1005900000200146E9E7010510196941DDE9084538
:1005A00000196941BDE8F04DA2E72DE9FE4F8046F4
:1005B00081EA0300C00F0C46009021F0004123F0B7
:1005C0000045B8EB0200A94105D2404621469046BD
:1005D0001C460B46024623F00040104347D0270D2F
:1005E000C7F30A00C3F30A510290401A0190402851
:1005F0006BDAC3F3130040F4801B0098924620B1DD
:100600000023D2EB030A63EB0B0B01985946C0F1B0
:100610004002504600F024F906460D465046594621
:10062000019A00F03CF910EB08006141002487EAD0
:10063000115284EAE7731A4340D0009A62B3019AD8
:10064000012A4FEA075215DC001B61EB02014FF053
:10065000004202EA0752CDE90042001C41F5801138
:1006600032462B46FFF753FF03B0BDE8F08F4046FC
:100670002146F9E7001B61EB0201001C41F58013E4
:1006800000185B412018A2F5001747EB030140EA70
:10069000D570B6196D4111E06D084FEA360645EA8E
:1006A000C0754FEA0752001B61EB0201001C41F5C7
:1006B000801149084FEA30000019514132462B465B
:1006C00003B0BDE8F04FFFF713BF009801224000D0
:1006D0000023D0EB020263EBE073009821464FEA5F
:1006E000E074B8EB000061EB0401E9E783F000433C
:1006F0005BE781F0004158E72DE9FE4F81EA0304F2
:1007000004F0004421F0004100944FF0000B23F06E
:10071000004350EA01045ED052EA03045BD0C3F305
:100720000A54C1F30A552C44A4F2F3340194A0FBFB
:100730000254C1F3130141F48011C3F3130343F4D2
:10074000801301FB024400FB034E840A970A44EA2B
:10075000815447EA8357A4FB076802958D0A05FB7D
:1007600007854FEA932C04FB0C542705029D4FEAA2
:10077000065847EA1637B5EB08056EEB070C870EEF
:10078000920E47EA811742EA8312A7FB0201B6EBF9
:100790000B0164EB00042B0D43EA0C335E1844EBB1
:1007A0001C50DA465146E7FB0201C5F313044FEA39
:1007B0000B3343EA14534FEA0432019C43EA060325
:1007C000A4F10C040294009CCDE900B4FFF79FFE55
:1007D00003B0BDE8F08F00200146F9E7C1F30A52EB
:1007E000C1F3130140F2FF3341F480119A4202DA5F
:1007F00000200146704740F233439A42A2F233424E
:1008000002DC524200F03BB800F02AB830B5041EBA
:1008100071F1000404DB4FF00044404264EB01013D
:10082000141E73F1000405DB1C464FF000435242D6
:1008300063EB0403994208BF904230BD064C074D5C
:1008400006E0E06840F0010394E8070098471034A0
:10085000AC42F6D3FFF74EFC1834000838340008D9
:10086000202A04DB203A00FA02F100207047914070
:10087000C2F1200320FA03F3194390407047202A65
:1008800004DB203A21FA02F00021704721FA02F33A
:10089000D040C2F120029140084319467047202AF7
:1008A00006DBCB17203A41FA02F043EAE07306E098
:1008B00041FA02F3D040C2F12002914008431946A8
:1008C000704710B501F0A0F800F01EF800F039FBF9
:1008D0004FF4165002F0CCFC00F018FA00F06AFA5F
:1008E00000F09CFA002140F2833001F001FA10BDC3
:1008F00000BFFEE710B50021014801F095FA10BDD8
:10090000000800407047000008B50F20ADF8000057
:1009100003208DF8020010208DF80300694602487C
:1009200000F004F808BD0000000801402DE9F04186
:10093000024600250026002000230024002791F80D
:1009400003C00CF00F0591F803C00CF0100CBCF1C3
:10095000000F03D091F802C04CEA050591F800C0E1
:10096000BCF1000F31D0146800202BE04FF0010CD7
:100970000CFA00F3B1F800C00CEA03069E4220D145
:1009800083004FF00F0C0CFA03F7BC4305FA03FC8D
:100990004CEA040491F803C0BCF1280F06D14FF0D3
:1009A000010C0CFA00FCC2F814C00AE091F803C074
:1009B000BCF1480F05D14FF0010C0CFA00FCC2F855
:1009C00010C0401C0828D1D31460B1F800C0BCF19D
:1009D000FF0F34DD546800202EE000F1080C4FF0CA
:1009E000010808FA0CF3B1F800C00CEA03069E42B5
:1009F00021D183004FF00F0C0CFA03F7BC4305FA2A
:100A000003FC4CEA040491F803C0BCF1280F05D1A3
:100A100000F1080C08FA0CF8C2F8148091F803C031
:100A2000BCF1480F07D100F1080C4FF0010808FA9B
:100A30000CF8C2F81080401C0828CED35460BDE8E2
:100A4000F0810000F0B50A460023002400210025B3
:100A500000F00046B6F1004F02D11D4EF16901E0F1
:100A60001B4E7168C0F3034583B200F44016B6F51F
:100A7000401F08D121F07061154E766826F070662F
:100A8000134F7E6012E000F48016B6F5801F06D189
:100A9000032606FA05F4A14341F0706106E0460D15
:100AA000360103FA06F6B14341F0706122B1460DFA
:100AB000360103FA06F6314300F00046B6F1004F66
:100AC00002D1034EF16101E0014E7160F0BD000002
:100AD00000000140416170470161704710B500BFDF
:100AE000094800884FF47A7100FB01F4074801F0CF
:100AF000ABFA04440020054924310880322002F07A
:100B0000F7FA204610BD0000540000200008004005
:100B100000BFFEE72DE9F84F4FF0000A0024A3467E
:100B2000A14631E0012021490860142002F004FBB5
:100B300000201F49C1F8AC0100BF1C488438006880
:100B40000028FAD000F00EFF641C00BF174884385C
:100B500000680128FAD0FFF7CDFEFFF7BFFF8246FD
:100B60005046FFF7FEFB0090FFF700FC074600220F
:100B7000104BFFF787FB0546FFF70BFC8346494602
:100B80005846FFF727FB8146052CCBD14846FFF797
:100B9000EDFB07460022084BFFF774FB0546FFF705
:100BA000F8FB83465846BDE8F88F0000AC8121422F
:100BB0000080214200004D40000014402DE9F84F14
:100BC0004FF0000A0024A346A14631E0012021494C
:100BD0000860142002F0B0FA00201F49C1F8B401E7
:100BE00000BF1C48843800680028FAD000F0BAFE24
:100BF000641C00BF1748843800680128FAD0FFF74A
:100C000079FEFFF76BFF82465046FFF7AAFB009084
:100C1000FFF7ACFB07460022104BFFF733FB0546FE
:100C2000FFF7B7FB834649465846FFF7D3FA81469C
:100C3000052CCBD14846FFF799FB07460022084B0D
:100C4000FFF720FB0546FFF7A4FB83465846BDE8A7
:100C5000F88F0000B48121420080214200004D4005
:100C6000000014402DE9F84F4FF0000A0024A3467D
:100C7000A14631E0012021490860142002F05CFA0D
:100C800000201F49C1F8BC0100BF1C48843800681F
:100C90000028FAD000F066FE641C00BF17488438B4
:100CA00000680128FAD0FFF725FEFFF717FF8246FC
:100CB0005046FFF756FB0090FFF758FB074600220F
:100CC000104BFFF7DFFA0546FFF763FB8346494603
:100CD0005846FFF77FFA8146052CCBD14846FFF7EF
:100CE00045FB07460022084BFFF7CCFA0546FFF705
:100CF00050FB83465846BDE8F88F0000BC81214276
:100D00000080214200004D40000014401FB5012129
:100D1000082000F059FE4FF42840ADF800000320F1
:100D20008DF8020010208DF8030069461F48FFF778
:100D3000FDFD4FF428411D48FFF7CCFE4FF4A840BD
:100D4000ADF8000004208DF8030069461748FFF74E
:100D5000EDFD4FF4A8411548FFF7BCFE012104202A
:100D600000F012FE4FF0804001F07AF840F2E730D8
:100D7000ADF808004720ADF804000020ADF80A00E7
:100D8000ADF8060001A90A4801F0E2FA012108487D
:100D900001F044F801221146054801F069F902F01A
:100DA000FFF90021024801F03FF81FBD000C01408F
:100DB0000008004008B50121052000F005FE0121D2
:100DC0001448FFF73FFE4FF48850ADF800001020A4
:100DD0008DF8030003208DF8020069460E48FFF7E6
:100DE000A5FD4FF488510C48FFF776FE4FF40840FC
:100DF000ADF8000010208DF8030003208DF80200EC
:100E000069460548FFF792FD4FF408410248FFF795
:100E100061FE08BD000230000008014008B5502006
:100E2000ADF8000010208DF8030003208DF80200BB
:100E300069461F48FFF77AFD10211D48FFF74CFE59
:100E4000A020ADF8000010208DF8030003208DF8DD
:100E5000020069461648FFF769FD20211448FFF794
:100E600039FE4FF48040ADF8000010208DF80300EB
:100E700003208DF8020069460E48FFF757FD4FF436
:100E800080410C48FFF728FE4FF40050ADF80000F9
:100E900010208DF8030003208DF8020069460548F4
:100EA000FFF744FD4FF400510248FFF713FE08BD61
:100EB000000801400010014010B54FF42F711C488C
:100EC00001F03BFA20211B48FFF706FE10211948CC
:100ED000FFF700FE4FF42F71154801F030FA4FF480
:100EE00000511548FFF7F8FD4FF480411248FFF715
:100EF000F1FD4FF42F710E4801F023FA4FF4807189
:100F00000C48FFF7E9FD4FF400610A48FFF7E2FDE6
:100F10004FF42F71064801F016FA4FF400410548CE
:100F2000FFF7DAFD4FF480510248FFF7D3FD10BD03
:100F300000040040000801400010014000BFFEE72F
:100F4000704710B54FF4A06000F03AF810BD0000F3
:100F500070B5002100230F22C47804B3154C246817
:100F600004F4E064C4F5E064210AC1F10403CA405A
:100F7000447804FA03F184781440214309010E4CAB
:100F80000678A155047804F01F050124AC400578CB
:100F90006D11AD0005F1E025C5F8004109E00478C8
:100FA00004F01F050124AC40044D0678761145F885
:100FB000264070BD0CED00E000E400E080E100E0C0
:100FC00002490143024A1160704700000000FA051F
:100FD0000CED00E010B500F00DF800F023FB00F080
:100FE0003BFB00F05BFB00F01CFB00F097FB00F00C
:100FF00013F810BD0548802102E0491E002204C0FC
:101000000029FAD1024A034B1A60704748050020B4
:101010004407002050000020704700000648007878
:10102000012808D105480078FF2804D20348007839
:10103000401C024908707047390000202C00002035
:1010400010B5002417480078012829D1FFF76AF865
:1010500004461548007820B113480078401E124914
:10106000087011480078C0B910480078A8B900F09D
:10107000BBFB0F480F49097850F821000E49086062
:101080000C4800780D490978884206D00C48006861
:10109000401C0B490860FFF765F82046FFF746F84B
:1010A00010BD0000390000202C0000202D00002081
:1010B000640200202F000020480000202E000020A5
:1010C0002800002010B50B48007890B900F08CFB88
:1010D000094800780949087009480749097850F813
:1010E0002100084908600846006807490860FFF7C2
:1010F00020F810BD390000202F0000202E00002015
:1011000064020020480000204000002070470000DA
:101110002DE9FE4F06460F4690461C464FF000094B
:10112000FFF700F881461F48007828B14846FEF7CF
:10113000FDFF3C20BDE8FE8F1B4850F8240060BB3B
:101140000120194941F824004846FEF7EFFF00232B
:1011500042463946304600F05BF982460020009056
:1011600001900346024651460290204600F052FB91
:10117000054635B90D48007801280CD100F000FB78
:1011800009E0FEF7CFFF81460020074941F824001F
:101190004846FEF7CBFF2846CCE74846FEF7C6FF99
:1011A0002820C7E72C00002064020020390000201E
:1011B0002DE9F04F85B00746884691461C46DDE98B
:1011C00011B6DDF838A000200390FEF7ABFF0390C6
:1011D0001F48007830B10398FEF7A8FF3C2005B007
:1011E000BDE8F08F1B4850F8240060BB012019496E
:1011F00041F824000398FEF799FF33464A464146DA
:10120000384600F005F9049010985346CDE901B630
:10121000009020460F9A049900F0FCFA054635B973
:101220000D48007801280CD100F0AAFA09E0FEF779
:1012300079FF03900020074941F824000398FEF746
:1012400075FF2846CBE70398FEF770FF2820C6E716
:101250002C000020640200203900002070470000AC
:1012600070B5054600264148007808B1402070BDA1
:101270003F2D01D13E20FAE7FEF754FF0646FF2D31
:1012800003D13B48006890F822503A4850F8254076
:1012900024B93046FEF74AFF4320E8E7012C04D189
:1012A0003046FEF743FF3D20E1E714F8240F3249B2
:1012B000085C6178884321782F4A505414F8240937
:1012C0001146085C30B994F826102C480078884301
:1012D0002A4908700020E06184F8200084F8210089
:1012E00027480078FF2804D225480078401C24496C
:1012F00008703046FEF71AFF00F092F9FEF712FF71
:1013000006461F48007820B11D480078401E1C4941
:101310000870204600F040F81A480078401E19492D
:1013200008700020134941F82500A06930B9002059
:101330006169886114496069086005E0D4E90501C4
:101340004861D4E9051088611048006860610F4861
:1013500004600FA0A0623046FEF7E8FE0D4800785A
:10136000012801D100F00CFA002080E72C000020B9
:1013700040000020640200203100002030000020E6
:101380002D0000203A0000204C00002044000020E6
:101390003F00000039000020704770472DE9F04100
:1013A00006460F4614464FF000081548007818B15D
:1013B00012202070BDE8F081FEF7B4FE8046FF2EBB
:1013C00003D11048006890F822600F4850F826506A
:1013D0002DB94046FEF7AAFE43202070EAE7012D12
:1013E00005D14046FEF7A2FE43202070E2E7AF623F
:1013F0004046FEF79BFE0020207000BFDAE70000A9
:101400002C000020400000206402002070470000F3
:1014100070B5044610464FF080750560051F2846DC
:101420002C60214E051F28462E604FF01236051FF6
:1014300028462E604FF00336051F28462E604FF0D9
:101440000236051F28462E607610051F28462E609E
:10145000051F284629604FF01136051F28462E60CB
:101460004FF01036051F28462E604FF00936051F35
:1014700028462E604FF00836051F28462E604FF094
:101480000736051F28462E604FF00636051F2846F2
:101490002E604FF00536051F28462E604FF00436AB
:1014A000051F28462E6070BD4D19000870470000CA
:1014B00030B585B0684600F0ADFA64220198B0FB03
:1014C000F2F1B1F1807F00D31DE021F07F40401E9A
:1014D0004FF0E022506150170F22002807DA13075F
:1014E0001D0E0A4B00F00F04241F1D5503E01307C7
:1014F0001C0E074B1C5400BF00204FF0E0229061EF
:101500000720106100BF05B030BD000018ED00E0FD
:1015100000E400E070B5054600261748007800B1E9
:1015200070BD1648007800B1FAE71DB3FEF7FAFD6A
:1015300006461348006890F824401248005D1049A0
:10154000096891F8251088430E4908550846005D42
:1015500040B90B48006890F826100B480078884383
:101560000949087006480068C5613046FEF7DEFD8F
:1015700000F006F900BFD3E72C0000202D0000206A
:1015800040000020310000203000002070B5002510
:101590001F48007801283AD11E48046833E0FEF75E
:1015A000C1FD0546E06950B3E069401EE061E069B5
:1015B00028BB94F8200000F0370040B114F8200F49
:1015C00000F0C800207001206070203C02E0002084
:1015D00084F8210094F8200000F0080078B9243441
:1015E000A0780D49097808430B49087020780B4909
:1015F000085C6178084314F82419084A5054646957
:101600002846FEF793FD94F822003F28C7D170BD0D
:10161000390000204C000020300000203100002064
:10162000704770470020064908700649087006494F
:101630000870064908700649086006490860704746
:101640002C0000202D0000203A000020390000204E
:10165000280000203C00002000210A4A11700020D0
:1016600004E00021084A1154411CC8B20828F8D3EC
:101670000021064A1170064A1170064A1160064A96
:101680001160704730000020310000202E00002043
:101690002F000020480000204000002070B54FF4CB
:1016A000F271194800F062F84FF48071174800F0A9
:1016B0005DF8002413E0601CC5B204EB440000EBAD
:1016C000C400114901EB800305EB450000EBC500A8
:1016D00001EB80065E610EA09862601CC4B20A2C09
:1016E000E9D304EB440000EBC400074901EB80039D
:1016F0000020586106A09862002006490860024850
:101700000549086070BD00006403002064020020E9
:101710003F0000004C0000204400002000B587B0CE
:101720000320002180220A4BCDE90132CDE90310CC
:101730004FF6FF703F23074A00900748FFF738FD38
:1017400006AA06A13F20FFF729FE07B000BD000052
:1017500064000020600200202519000875432F4F07
:10176000532D49492049646C6500000004E00022C3
:1017700000F8012B4A1E91B20029F8D170470000F1
:1017800010B50024FEF7CEFC044610480078C0B91E
:101790000F480078A8B900F027F80E480E490978DC
:1017A00050F821000D4908600B4800780C49097871
:1017B000884206D00B480068401C0A490860FEF7C2
:1017C000CCFC2046FEF7B2FC10BD00002C0000202F
:1017D0002D000020640200202F000020480000207F
:1017E0002E000020280000200649074A1278885C55
:1017F0000649095C034A515C01EBC001044A1170BF
:10180000704700001833000830000020310000202D
:101810002F0000202DE9F84F05460E461746984642
:10182000DDE90BABDDF8289000200090FEF77AFC94
:10183000009035480468002C61D008343249E068D3
:1018400008600098FEF772FC44F8086CA57600204A
:1018500020766076606144F804ACC4F80490276098
:10186000A4F808B0A4F80A80E077E810207705F023
:101870000700E076217F01208840A077E17E0120EB
:101880008840607721A02062083C2046FFF73EFC9C
:10189000FEF748FC00901E4840F825400098FEF7EF
:1018A00045FC2046FFF7DAFCFEF73CFC00901948A7
:1018B000006860610020A0611648006810B11548FA
:1018C00000688461134804602434A07812490978C0
:1018D00008431149087020781049085C6178084372
:1018E00014F824190D4A50540D480078401C0C4936
:1018F00008700098FEF71AFC0020BDE8F88F0098E9
:10190000FEF714FC4220F8E7440000203F000000EE
:10191000640200204C000020300000203100002034
:101920003A000020002400BF00BFFEF7FBFB044686
:1019300005480068401C044908602046FEF7F6FB95
:10194000FFF72BFDF1E700003C00002010B5044834
:101950000068FFF75BFDFF20FFF782FC10BD000071
:101960004000002010B50021054800F0EFFC0020E9
:10197000044908800121024800F056FA10BD000019
:10198000000800405400002029B1064AD2690243F1
:10199000044BDA6104E0034AD2698243014BDA6105
:1019A000704700000010024029B1064A1269024344
:1019B000044B1A6104E0034A12698243014B1A6125
:1019C000704700000010024029B1064A92690243A4
:1019D000044B9A6104E0034A92698243014B9A6185
:1019E000704700000010024029B1064AD268024345
:1019F000044BDA6004E0034AD2688243014BDA60A8
:101A0000704700000010024010B50121FD20FFF7D3
:101A1000DBFF10BD30B500210022002400232D4D36
:101A20006D6805F00C0121B1042905D0082923D1E6
:101A300005E0294D056022E0274D05601FE0254D9A
:101A40006D6805F47012234D6D6805F4803402252D
:101A500005EB92421CB9214D554305600BE01D4D2D
:101A60006D6805F400351DB11C4D5543056002E05D
:101A7000194D5543056002E0174D056000BF00BFDA
:101A8000144D6D6805F0F0010909154D6B5C056892
:101A9000DD4045600F4D6D6805F4E061090A104DA9
:101AA0006B5C4568DD4085600A4D6D6805F46051EA
:101AB000C90A0B4D6B5C4568DD40C560054D6D681E
:101AC00005F44041890B074D6B5CC568B5FBF3F528
:101AD000056130BD0010024000127A0000093D008F
:101AE000000000201000002010B54FF42F711C489A
:101AF00000F023FC10211B48FEF7EEFF20211948BF
:101B0000FEF7E8FF4FF42F71154800F018FC4FF472
:101B100080411548FEF7E0FF4FF400511248FEF7F0
:101B2000D9FF4FF42F710E4800F00BFC4FF4006109
:101B30000C48FEF7D1FF4FF480710A48FEF7CAFF48
:101B40004FF42F71064800F0FEFB4FF4805105481A
:101B5000FEF7C2FF4FF400410248FEF7BBFF10BD85
:101B6000000400400008014000100140704710B51B
:101B700000F002F810BD00000CB5002001900090AC
:101B80003348006840F480303149086000BF304875
:101B9000006800F4003000900198401C019000980B
:101BA00018B90198B0F5A06FF1D12948006800F488
:101BB000003010B10120009001E00020009000985A
:101BC000012843D12348006840F0100021490860F3
:101BD0000846006820F0030008600846006840F0EE
:101BE000020008601A484068194948600846406881
:101BF00048600846406840F4806048600846406895
:101C000020F47C1048600846406840F4E8104860C2
:101C10000846006840F08070086000BF0C4800680B
:101C200000F000700028F9D00948406820F0030057
:101C3000074948600846406840F00200486000BF1D
:101C40000348406800F00C000828F9D10CBD0000E2
:101C50000010024000200240042808D14FF0E0218B
:101C6000096941F004014FF0E022116107E04FF0F3
:101C7000E021096921F004014FF0E0221161704771
:101C800010B5FFF7CBF9FFF781FCFFF7D9F910BDCD
:101C900010B51348006840F001001149086008467B
:101CA0004068104908400E494860084600680E49DF
:101CB00008400B4908600846006820F4802008604E
:101CC0000846406820F4FE0048604FF41F0088601A
:101CD000FFF74DFF4FF000600449086010BD0000A1
:101CE000001002400000FFF8FFFFF6FE08ED00E0E4
:101CF00030B589B005460C4601210220FFF744FEAD
:101D000001210820FFF760FE01210420FFF75CFE9F
:101D100018208DF823000320ADF820008DF8220054
:101D200008A92B48FEF702FE18208DF82300C020DA
:101D3000ADF8200003208DF8220008A92548FEF701
:101D4000F5FDADF81850ADF814400020ADF81A00BC
:101D5000ADF8160005A9204800F0FAFA7020ADF899
:101D600004000120ADF806000020ADF80A00ADF82F
:101D70000C0001A9184800F085F901A9164800F0E7
:101D8000D7F901A9144800F033FA01A9124800F06C
:101D900089FA0821104800F0C1F908210E4800F026
:101DA00019FA08210C4800F073FA10210A4800F0D3
:101DB000B7FA0121084800F025F80121064800F093
:101DC0003FF80121044800F02FF809B030BD0000B1
:101DD000000C0140000801400004004010B5012142
:101DE000064800F034F940B10121044800F019F828
:101DF00003480088401C0249088010BD00080040CC
:101E00005400002021B1028842F08002028004E0E8
:101E100002884FF67F731A4002807047CA430282DD
:101E20007047CA430282704721B1028842F0010222
:101E3000028004E002884FF6FE731A400280704769
:101E400031B1B0F8442042F40042A0F8442005E04B
:101E5000B0F84420C2F30E02A0F8442070470000FE
:101E600010B504466848844208D10121C014FFF728
:101E7000BBFD0021E014FFF7B7FDC4E0B4F1804FD3
:101E800008D101210846FFF78FFD00210120FFF74F
:101E90008BFDB8E05D48844208D101210220FFF7A4
:101EA00083FD00210220FFF77FFDACE0584884420B
:101EB00008D101210420FFF777FD00210420FFF75E
:101EC00073FDA0E05348844208D101210820FFF7A8
:101ED0006BFD00210820FFF767FD94E04E48844227
:101EE00008D101211020FFF75FFD00211020FFF72E
:101EF0005BFD88E04948844208D101212020FFF79A
:101F000053FD00212020FFF74FFD7CE04448844230
:101F100008D101214014FFF767FD00216014FFF78D
:101F200063FD70E03F48844209D10121C804FFF7F6
:101F30005BFD00214FF40020FFF756FD63E03A48B7
:101F4000844209D101210805FFF74EFD00214FF41D
:101F50008010FFF749FD56E03448844209D1012141
:101F60004805FFF741FD00214FF40010FFF73CFD4D
:101F700049E02F48844208D101214020FFF714FD99
:101F800000214020FFF710FD3DE02A48844208D19F
:101F900001218020FFF708FD00218020FFF704FDCC
:101FA00031E02548844208D101218015FFF7FCFC6F
:101FB0000021A015FFF7F8FC25E02048844209D154
:101FC00001210804FFF710FD00214FF48030FFF7D6
:101FD0000BFD18E01A48844209D101214804FFF79B
:101FE00003FD00214FF40030FFF7FEFC0BE0154825
:101FF000844208D101218804FFF7F6FC00214FF448
:102000008020FFF7F1FC10BD002C014000040040CF
:1020100000080040000C0040001000400014004088
:1020200000340140004C0140005001400054014088
:1020300000180040001C004000200040004001400B
:1020400000440140004801400146888C704730B58B
:102050000246002000230024158A05EA0103958921
:1020600005EA010413B10CB1012000E0002030BDED
:102070001AB183890B43838102E083898B43838177
:102080007047000070B5002400220023058C4FF635
:10209000FE7635400584028C8388048B4FF68F755D
:1020A0002C40B51E2C400D882C43751E2A400D89EE
:1020B0002A434D882A43144DA8420BD0134DA84201
:1020C00008D0134DA84205D0124DA84202D0124D9F
:1020D000A84213D14FF6F7752A404D892A434FF68F
:1020E000FB752A408D882A434FF6FF652B404FF63B
:1020F000FF552B408D892B43CD892B43838004834F
:10210000CD888586028470BD002C014000340140DA
:102110000040014000440140004801400A460021BF
:10212000018B4FF6F773194011430183704700008C
:1021300070B5002400220023058C4FF6EF76354061
:102140000584028C8388048B48F6FF752C404FF67B
:10215000FF452C400D884FF6FF7606EA05252C43F7
:102160004FF6DF752A400D8906EA05152A434D888A
:1021700006EA05152A43154DA84202D0144DA8427F
:102180001DD14FF67F752A404D894FF6FF7606EA3E
:1021900005152A434FF6BF752A408D8806EA0515B6
:1021A0002A434FF6FF352B404FF2FF752B408D89A8
:1021B00006EA85052B43CD8906EA85052B438380F6
:1021C0000483CD880587028470BD0000002C014087
:1021D000003401400A460021018B4FF2FF73194081
:1021E0004FF6FF7303EA022319430183704700008F
:1021F00070B5002400220023058C4FF6FF663540A1
:102200000584028C8388848B4FF68F752C404FF6A3
:10221000FC752C400D882C434FF6FF552A400D8944
:102220004FF6FF7606EA05252A434D8806EA05257E
:102230002A43154DA84202D0144DA8421DD14FF299
:10224000FF752A404D894FF6FF7606EA05252A4399
:102250004FF6FF352A408D8806EA05252A434EF6BB
:10226000FF752B404DF6FF752B408D8906EA05154D
:102270002B43CD8906EA05152B4383808483CD88C3
:102280008587028470BD0000002C014000340140AD
:102290000A460021818B4FF6F77319401143818361
:1022A0007047000070B5002200230024058C4EF614
:1022B000FF7635400584038C8488828B48F6FF7551
:1022C0002A404FF6FF452A400D884FF6FF7606EA72
:1022D00005252A434DF6FF752B400D8906EA053585
:1022E0002B434D8806EA05352B430B4DA84202D0FF
:1022F0000A4DA84208D14BF6FF752C408D894FF648
:10230000FF7606EA85152C4384808283CD88A0F869
:102310004050038470BD0000002C01400034014097
:102320000A460021818B4FF2FF7319404FF6FF736D
:1023300003EA02231943818370478186704701872E
:10234000704781877047A0F84010704781847047BC
:10235000002202881D4B98420ED01D4B98420BD094
:10236000B0F1804F08D01B4B984205D01A4B9842D1
:1023700002D01A4B984204D14FF68F731A404B8803
:102380001A43174B984207D0164B984204D04FF689
:10239000FF431A40CB881A4302808B8883850B88C1
:1023A00003850A4B98420BD0094B984208D00E4B3C
:1023B000984205D00D4B984202D00D4B984201D166
:1023C0000B7A03860123838270470000002C0140B2
:1023D000003401400004004000080040000C0040B0
:1023E0000010004000140040004001400044014043
:1023F0000048014010B504460823034A0021034861
:10240000FEF786FE10BD00004408002011240008DD
:102410000EB5002002908246019000240090834671
:1024200057E0FEF777FB05462846FDF79FFF074676
:102430003A460B4627A000F0C3F9FEF7BFFB06465D
:102440003046FDF793FF07463A460B4624A000F0BE
:10245000B7F9FEF707FC81464846FDF787FF0746B8
:102460003A460B4621A000F0ABF9AA463446CB46CB
:1024700021495046FDF7AAFF07D859462046FDF7E7
:10248000A5FF02D2FFF730FB0EE01B495046FDF7D7
:102490009DFF07D859462046FDF7A2FF02D2FEF75E
:1024A0000BFD01E000F0A2FE21460198FDF798FF28
:1024B00001D2FFF719FB59460098FDF791FF01D2B1
:1024C000FEF7FAFC00F092FECDF808A00194CDF8DA
:1024D00000B0A6E746726F6E743A252E32660A0087
:1024E0004C6566743A252E32660A000052696768A8
:1024F000743A252E32660A000000404010B540F2C2
:1025000025511D4800F098F810B31B4800F050F911
:10251000C4B21A48008800F40040C8B917480088BF
:1025200000F4804060B10A2C03D0002013490880D9
:1025300020E01248008840F400401049088019E06B
:102540000D2C06D10D48008840F480400B490880CE
:1025500010E00A480088C0F30D0009490C540748F0
:102560000088401C0549088008460088C72801DD0E
:102570000020088010BD00000038014060000020ED
:10258000480A002021B1828942F40052828104E08D
:1025900082894DF6FF731A408281704710B5044658
:1025A0002048844209D101218803FFF71DFA002148
:1025B0004FF48040FFF718FA32E01B48844209D1FB
:1025C00001214804FFF7F0F900214FF40030FFF734
:1025D000EBF925E01548844209D101218804FFF771
:1025E000E3F900214FF48020FFF7DEF918E01048EE
:1025F000844209D10121C804FFF7D6F900214FF424
:102600000020FFF7D1F90BE00A48844208D10121EC
:102610000805FFF7C9F900214FF48010FFF7C4F94E
:1026200010BD000000380140004400400048004058
:10263000004C00400050004070B5024600240023CA
:102640000025002040F66A16B14200D100BFC1F358
:10265000421501F01F03012606FA03F3012D02D1F2
:102660009689334006E0022D02D1168A334001E0FC
:10267000968A33400C12012606FA04F41688344078
:1026800013B10CB1012000E0002070BDF0B503468D
:10269000002400260025002040F66A17B94200D128
:1026A00000BF1846C1F3421401F01F06012707FAC4
:1026B00006F5012C01D10C3004E0022C01D11030C0
:1026C00000E014301AB107682F43076002E0076882
:1026D000AF430760F0BD00002DE9F04786B0054626
:1026E0000E460024A24600BFA1460027B08900B1D3
:1026F00000BF2F462C8A4CF6FF700440F08804433C
:102700002C82AC894EF6F3100440B088318908431E
:10271000718908430443AC81AC8A4FF6FF40044002
:10272000B0890443AC8201A8FFF774F91F488742BF
:1027300002D1DDF810A001E0DDF80CA0A88900F4BA
:10274000004040B10AEBCA0000EB0A1031684900B2
:10275000B0FBF1F807E00AEBCA0000EB0A103168A1
:102760008900B0FBF1F86420B8FBF0F00401200907
:10277000642101FB1089A88900F4004040B1322097
:1027800000EBC900B0FBF1F000F00700044308E0E3
:10279000322000EB09106421B0FBF1F000F00F00D3
:1027A00004432C8106B0BDE8F087000000380140EA
:1027B00001468888C0F30800704700BFFEE70000AC
:1027C0000FB4054B10B503A9044A029800F0CAF8EB
:1027D00010BC5DF814FB0000853100085C0000208F
:1027E00002E008C8121F08C1002AFAD170477047DA
:1027F000002001E001C1121F002AFBD17047000038
:102800002DE9FF5FDDE90220010DDDF838B002435C
:1028100018D044F61050A1F2FF3141430D140F9827
:10282000012820D0A5EB0B00401C5FEA000A4FF006
:102830000004474EDFF81C91A046504616D5CAF159
:10284000000728E00F98012443A2012808D00021A6
:1028500000980F9BC0E90021C0E90243BDE8FF9F3B
:102860006FEA0B01F4E7CBF10000DEE7074612E068
:10287000F80707D02246334640464946FDF73CFF5D
:10288000804689462246334610461946FDF734FFF6
:1028900004460E467F10002FEAD1DDE90201BAF1AD
:1028A000000F42464B4602DAFDF726FF01E0FDF736
:1028B000E9FC04460E460022284BFDF7A7FF03D88B
:1028C0004FF0FF30014607E00022254B20463146FD
:1028D000FDF76BFEFDF782FF102409E0002C0ADBF8
:1028E0000A220023FDF79CFD019B30321A55641E1D
:1028F00050EA0102F2D1641C019AC4F1110314449C
:102900000F9A012A03D0012208430DD10AE008439F
:1029100004D000204FF0110B0F9080E7A3EB0B05C4
:102920006D1E0DE05B4504DD4FF0000205F1010571
:1029300004E003DA4FF00002A5F10105002AECD013
:1029400000980F99C0E90231C0E9004586E7000010
:10295000000024400000F03F300000000000F04381
:102960000000E03F2DE9FF4F95B09B4689460646A3
:1029700000250FE2252877D100242746F84A0121B7
:10298000059400E0044316F8013F203B01FA03F0F0
:102990001042F7D130782A2811D06FF02F03307809
:1029A000A0F13002092A16D8059A44F0020402EB7D
:1029B000820203EB42021044761C0590EFE759F8BF
:1029C000042B0592002A03DA504244F40054059087
:1029D00044F00204761C30782E2816D116F8010F28
:1029E00044F004042A280DD06FF02F023078A0F1B3
:1029F0003003092B09D807EB870302EB4303C71801
:102A0000761CF3E759F8047B761C30786C280FD0DD
:102A100006DC4C2817D068280DD06A2814D104E0B1
:102A2000742810D07A280FD10DE044F400140AE085
:102A300044F4801401E044F440147278824202D1DC
:102A400004F58014761C761C307866280BD013DCD5
:102A5000582877D009DC002875D04528F6D04628BC
:102A6000F4D047281AD19DE118E0632835D06428B6
:102A700079D0652812D195E1702873D008DC6728D9
:102A8000F1D069286FD06E280DD06F2806D1B5E03F
:102A900073282CD0752875D0782874D05A46179989
:102AA00090476D1C75E1C4F30250022809D0032839
:102AB0000DD0D9F8001004280DD00D6009F10409DB
:102AC00067E1D9F80010EA17C1E90052F6E7D9F832
:102AD00000100D80F2E70D70F0E719F8041B8DF877
:102AE000001000208DF80100EA46012003E059F8AB
:102AF00004AB4FF0FF3061074FF0000102D40DE04E
:102B000008F101018846B9420FDA8045F8DB1AF86E
:102B100008100029F4D108E008F10101884681423B
:102B2000FADB1AF808100029F6D105985B46A0EBED
:102B3000080721463846179A00F094FA284400EB1B
:102B4000080507E04DE029E10DE01AF8010B5A46AF
:102B500017999047B8F10108F7D25B4621463846ED
:102B6000179A13E142E00A220092C4F302524FF096
:102B7000000A022A08D059F804CB032A4FEAEC7164
:102B80000AD00DE029E02AE009F1070121F007024F
:102B9000F2E802C1914609E00FFA8CFC4FEAEC71B1
:102BA000042A03D14FFA8CFC4FEAEC71002907DAB2
:102BB0000A460021DCF1000C61EB02012D2202E04B
:102BC000220504D52B228DF80420012203E0E20720
:102BD00001D02022F7E7904659E00A2102E01022B6
:102BE0000DE010214FF0000A00910BE010224FF091
:102BF000000A44F004040827009203E008224FF082
:102C0000000A0092C4F30252022A05D059F804CBFC
:102C10000021032A08D009E009F1070121F0070289
:102C2000F2E802C1914605E01FFA8CFC042A01D1AA
:102C30000CF0FF0C4FF00008220728D5702806D0B2
:102C4000009B83F0100353EA0A0305D00EE04022F4
:102C50008DF80420012208E05CEA010206D030224F
:102C60008DF804208DF8050002229046009B83F029
:102C7000080353EA0A030AD15CEA010201D16207A0
:102C800005D530228DF804204FF001087F1E58280A
:102C900004D034A003900EA802900DE036A0F9E70E
:102CA00053466046009AFDF7BBFB84460398825C5E
:102CB0000298401E029002705CEA0100F0D1029876
:102CC00006A9081A00F1200A600702D524F480340E
:102CD00000E00127574502DDA7EB0A0000E00020D5
:102CE00000EB0A01009005984144401A0590E0036A
:102CF00006D45B462146179A059800F0B3F90544BF
:102D0000002706E001A85A46C05D179990476D1C40
:102D10007F1C4745F6DBE0030CD55B462146179A3E
:102D2000059800F09FF9054404E030205A461799B1
:102D300090476D1C0099481E00900029F5DC08E0C2
:102D4000029802995A460078491C029117999047B7
:102D50006D1CBAF10001AAF1010AF1DC65E1000085
:102D60000928010030313233343536373839616261
:102D70006364656600000000303132333435363725
:102D800038394142434445460000000000F058F9FC
:102D90000544761C307800287FF4ECAD19B0284645
:102DA000BDE8F08F620700D4062709F1070222F080
:102DB000070CFCE80223E14603F000485FEA080C38
:102DC00002D00FF2702C0DE05FEA045C02D50FF226
:102DD000682C07E05FEAC47C02D00FF2602C01E0AF
:102DE000AFF2700C4FF0FF3823F00043CDF850C025
:102DF00065280CD006DC452809D046281DD0472878
:102E00003DD13DE0662818D067287ED138E000210A
:102E1000112F01DB112000E0781CCDE9000106A98B
:102E20000EA8FFF7EDFCDDE90F010E9A03910021DA
:102E3000009207F1010A04914DE04FF00040009725
:102E4000CDE9011006A90EA8FFF7DAFCDDE90F02B3
:102E500003920E9B11990022DDF80CA000930492BE
:102E600011B9791C00EB010AB7EB0A0004D4C0F1D8
:102E7000FF3007F1010A0490AAEB0700019044E03B
:102E8000012F00DA01270021112F01DD112000E0C0
:102E90003846CDE9000106A90EA8FFF7B1FCDDE92F
:102EA0000F010E9A0391002104910092BA46210766
:102EB0000CD40399514500DA8A46BAF1010F05DDB9
:102EC000009AAAF10101515C302908D0B84202DA17
:102ED00010F1040F06DA0121CDE9011015E0AAF185
:102EE0000101E9E7002805DC049901440491AAEBFB
:102EF000000102E0411C514500DD8A460499401A58
:102F0000401C01904FF000400290200704D401982B
:102F1000504501DBCDF8048000208DF84F00029869
:102F20000DF14F07B0F1004F25D02B200E900298E5
:102F30004FF0020800280CDA404202902D200E903B
:102F400007E00A210298FDF755FA3031029007F8A0
:102F5000011DB8F10001A8F10108F2DC0298002877
:102F6000EFD1791E0E980870307800F0200040F004
:102F7000450007F8020D12A8C01B00F107081498BD
:102F8000007800B1012000EB0A01019801EBE0712B
:102F900005984144401A401E0590E00306D45B4664
:102FA0002146179A059800F05DF8054414980078BA
:102FB00018B15A46179990476D1CE00324D55B461B
:102FC0002146179A059800F04DF805441CE0049836
:102FD000002807DBDDE90301884203DD0098405C3F
:102FE000179901E0179930205A469047049805F147
:102FF0000105401C04900198401E019004D12E2030
:103000005A46179990476D1CBAF10001AAF1010ABE
:10301000DDDC05E017F8010B5A46179990476D1C47
:10302000B8F10001A8F10108F4DC5B462146179ACB
:103030000598ABE62D0000002B00000020000000EA
:103040002DE9F041044600251E461746880404D4A5
:1030500005E039462020B0476D1C641EF9D528468E
:10306000BDE8F0812DE9F041044600251E4690465A
:10307000C80301D5302700E02027880404D505E0E7
:1030800041463846B0476D1C641EF9D52846BDE858
:10309000F081000010B56FF00400FEF7DDFD104870
:1030A00000681049B0FBF1F00F4908700C48006847
:1030B0000C49B0FBF1F442F2107044430A200B4972
:1030C00008804FF0E020006940F002004FF0E0215E
:1030D000086108464461006940F00100086110BDC4
:1030E0001400002000127A00560000205800002032
:1030F00070B504460E480078012811D10D480088AB
:10310000844206DB0B48008894FBF0F52846FEF766
:1031100001FA0848008894FBF0F100FB114084B2EA
:103120004FF47A7104FB01F000F006F870BD000066
:10313000390000205800002070B5034600224FF0EF
:10314000E02675690E4E367803FB06F400BF4FF09B
:10315000E026B16910E04FF0E026B06988420BD05C
:10316000884202D20E1A324402E02E1A0E44324431
:103170000146A24200D300E0EDE700BF70BD0000B1
:103180005600002000BF054A128802F04002002AC3
:10319000F9D0C2B2014B1B1D1A80704700380140A4
:1031A00008B54FF4A060FDF70BFF1E208DF800005E
:1031B00000208DF801008DF8020001208DF8030039
:1031C0006846FDF7C5FE08BD10B5FDF703FFFDF726
:1031D00078FBFEF76DF9FFF75DFFFDF76DFE20460A
:1031E000FFF708F9FDF76EFF002010BD10B54FF492
:1031F0002F711C48FFF7A1F810211B48FDF76CFC4C
:1032000020211948FDF766FC4FF42F711548FFF790
:1032100096F84FF400511548FDF75EFC4FF48041DD
:103220001248FDF757FC4FF42F710E48FFF789F84D
:103230004FF400610C48FDF74FFC4FF480710A48D1
:10324000FDF748FC4FF42F710648FFF77CF84FF468
:1032500000410548FDF740FC4FF480510248FDF75E
:1032600039FC10BD0004004000080140001001407E
:1032700010B586B00446012144F20400FEF7A4FB19
:103280002348FFF78BF94FF40070ADF814000320CA
:103290008DF8160018208DF8170005A91D48FDF7B8
:1032A00045FB4FF48060ADF8140004208DF8170042
:1032B00005A91848FDF73AFB25208DF800000320EA
:1032C0008DF801008DF8020001208DF8030068469A
:1032D000FDF73EFE01940020ADF80800ADF80A00AD
:1032E000ADF80C00ADF810000C20ADF80E0001A9EF
:1032F0000748FFF7F1F9012240F225510448FFF792
:10330000C5F901210248FFF73DF906B010BD0000E4
:1033100000380140000801400000010002000100E7
:10332000030001000200010004000100020001008E
:10333000030001000200010005000100020001007D
:10334000030001000200010004000100020001006E
:10335000030001000200010006000100020001005C
:10336000030001000200010004000100020001004E
:10337000030001000200010005000100020001003D
:10338000030001000200010004000100020001002E
:10339000030001000200010007000100020001001B
:1033A000030001000200010004000100020001000E
:1033B00003000100020001000500010002000100FD
:1033C00003000100020001000400010002000100EE
:1033D00003000100020001000600010002000100DC
:1033E00003000100020001000400010002000100CE
:1033F00003000100020001000500010002000100BD
:1034000003000100020001000400010002000100AD
:103410000300010002000100383400080000002011
:1034200064000000E02700089C34000864000020CD
:10343000AC0E0000F02700080000000001020304A9
:1034400001020304060708090204060800A24A0450
:103450000000000000000000010203040607080944
:10346000000000000000000000000000000000005C
:10347000000000000000000000000000000000004C
:10348000000000000000000000000000000000003C
:0C34900000000000000000000000000030
:04000005080000ED02
:00000001FF
