:020000040800F2
:10000000100C002001010008B505000801040008DB
:10001000B105000827020008971B00080000000037
:100020000000000000000000000000005D1000085B
:100030002B020008000000006F0100087111000889
:100040001B0100081B0100081B0100081B01000820
:100050001B0100081B0100081B0100081B01000810
:100060001B0100081B0100081B0100081B01000800
:100070001B0100081B0100081B0100081B010008F0
:100080001B0100081B0100081B0100081B010008E0
:100090001B0100081B0100081B0100081B010008D0
:1000A0001B0100081B0100081B0100081B010008C0
:1000B0001B0100081B010008CD1200081B010008ED
:1000C0001B0100081B0100081B0100081B010008A0
:1000D0001B010008D91800081B0100081B010008BB
:1000E0001B0100081B0100081B010008DFF80CD0F1
:1000F00000F070F8004800473D1C0008100C00207C
:100100000648804706480047FEE7FEE7FEE7FEE7B1
:10011000FEE7FEE7FEE7FEE7FEE7FEE781110008E7
:10012000ED000008EFF3108072B6704780F310887E
:1001300070471F484FF0FF010170002080F30988CD
:100140001C48016881F308881B48012101701B4885
:100150004FF08051016062B6FEE718484FF08051C1
:100160000160704715484FF080510160704772B6CA
:10017000EFF3098028B1203880E8F00F10490968B2
:10018000086000B50F4880475DF804EB0E480F4942
:100190000A7802700A480E490A680260106890E8FE
:1001A000F00F203080F309884EF0040E62B67047DD
:1001B00022ED00E0500000203900002004ED00E0B6
:1001C00040000020390A00082E0000202F000020E7
:1001D00048000020064C074D06E0E06840F00103AF
:1001E00094E8070098471034AC42F6D3FFF782FF3B
:1001F000FC1D00081C1E000810B500F07DFE00F07C
:1002000015F800F0D8F94FF4165001F023FD00F076
:10021000F9F800F04BF900F07DF9002140F283304D
:1002200000F0DEFF10BD00BFFEE7704708B50F20ED
:10023000ADF8000003208DF8020010208DF80300B7
:100240006946024800F004F808BD000000080140BB
:100250002DE9F0410246002500260020002300245D
:10026000002791F803C00CF00F0591F803C00CF0C3
:10027000100CBCF1000F03D091F802C04CEA050548
:1002800091F800C0BCF1000F31D0146800202BE0C1
:100290004FF0010C0CFA00F3B1F800C00CEA0306B1
:1002A0009E4220D183004FF00F0C0CFA03F7BC43A1
:1002B00005FA03FC4CEA040491F803C0BCF1280FD2
:1002C00006D14FF0010C0CFA00FCC2F814C00AE091
:1002D00091F803C0BCF1480F05D14FF0010C0CFAA6
:1002E00000FCC2F810C0401C0828D1D31460B1F83B
:1002F00000C0BCF1FF0F34DD546800202EE000F197
:10030000080C4FF0010808FA0CF3B1F800C00CEA31
:1003100003069E4221D183004FF00F0C0CFA03F725
:10032000BC4305FA03FC4CEA040491F803C0BCF199
:10033000280F05D100F1080C08FA0CF8C2F8148057
:1003400091F803C0BCF1480F07D100F1080C4FF041
:10035000010808FA0CF8C2F81080401C0828CED317
:100360005460BDE8F0810000F0B50A460023002487
:100370000021002500F00046B6F1004F02D11D4ECD
:10038000F16901E01B4E7168C0F3034583B200F4CC
:100390004016B6F5401F08D121F07061154E766801
:1003A00026F07066134F7E6012E000F48016B6F5FA
:1003B000801F06D1032606FA05F4A14341F07061BF
:1003C00006E0460D360103FA06F6B14341F07061CE
:1003D00022B1460D360103FA06F6314300F000461D
:1003E000B6F1004F02D1034EF16101E0014E7160A0
:1003F000F0BD00000000014041617047016170479D
:1004000000BFFEE71FB50121082000F055FD4FF4A5
:100410002840ADF8000003208DF8020010208DF870
:10042000030069461F48FFF713FF4FF428411D489A
:10043000FFF7E2FF4FF4A840ADF8000004208DF86C
:10044000030069461748FFF703FF4FF4A84115481A
:10045000FFF7D2FF0121042000F00EFD4FF0804095
:1004600000F076FF40F2E730ADF808004720ADF825
:1004700004000020ADF80A00ADF8060001A90A4802
:1004800001F0D8F90121084800F040FF012211468F
:10049000054801F062F801F0BDFB0021024800F0C0
:1004A0003BFF1FBD000C01400008004008B50121C2
:1004B000052000F001FD01211448FFF755FF4FF41E
:1004C0008850ADF8000010208DF8030003208DF84F
:1004D000020069460E48FFF7BBFE4FF488510C48F6
:1004E000FFF78CFF4FF40840ADF8000010208DF8A6
:1004F000030003208DF8020069460548FFF7A8FEB7
:100500004FF408410248FFF777FF08BD00023000B2
:100510000008014008B55020ADF8000010208DF80B
:10052000030003208DF8020069461F48FFF790FE84
:1005300010211D48FFF762FFA020ADF80000102039
:100540008DF8030003208DF8020069461648FFF776
:100550007FFE20211448FFF74FFF4FF48040ADF895
:10056000000010208DF8030003208DF8020069467A
:100570000E48FFF76DFE4FF480410C48FFF73EFF39
:100580004FF40050ADF8000010208DF80300032058
:100590008DF8020069460548FFF75AFE4FF40051F6
:1005A0000248FFF729FF08BD000801400010014084
:1005B00000BFFEE7704710B54FF4A06000F03AF8B6
:1005C00010BD000070B5002100230F22C47804B3D1
:1005D000154C246804F4E064C4F5E064210AC1F118
:1005E0000403CA40447804FA03F184781440214398
:1005F00009010E4C0678A155047804F01F0501246A
:10060000AC4005786D11AD0005F1E025C5F800415D
:1006100009E0047804F01F050124AC40044D06787D
:10062000761145F8264070BD0CED00E000E400E0D6
:1006300080E100E002490143024A11607047000076
:100640000000FA050CED00E010B500F00DF800F028
:1006500073FA00F08BFA00F0ABFA00F06CFA00F0DD
:10066000E7FA00F013F810BD0548802102E0491EAA
:10067000002204C00029FAD1024A034B1A607047D5
:10068000480500204407002050000020704700006B
:1006900006480078012808D105480078FF2804D2D0
:1006A00003480078401C0249087070473900002058
:1006B0002C00002010B5002417480078012829D10B
:1006C000FFF730FD04461548007820B11348007844
:1006D000401E1249087011480078C0B910480078CF
:1006E000A8B900F00BFB0F480F49097850F821001A
:1006F0000E4908600C4800780D490978884206D0F8
:100700000C480068401C0B490860FFF72BFD204691
:10071000FFF70CFD10BD0000390000202C00002068
:100720002D000020640200202F000020480000203F
:100730002E00002028000020704700002DE9F04F17
:1007400085B00746884691461C46DDE911B6DDF8BE
:1007500038A000200390FFF7E5FC03901F480078C5
:1007600030B10398FFF7E2FC3C2005B0BDE8F08F04
:100770001B4850F8240060BB0120194941F82400AF
:100780000398FFF7D3FC33464A464146384600F00B
:1007900005F9049010985346CDE901B60090204623
:1007A0000F9A049900F0C0FA054635B90D48007853
:1007B00001280CD100F06EFA09E0FFF7B3FC0390BA
:1007C0000020074941F824000398FFF7AFFC2846B2
:1007D000CBE70398FFF7AAFC2820C6E72C000020EF
:1007E00064020020390000207047000070B5054603
:1007F00000264148007808B1402070BD3F2D01D14E
:100800003E20FAE7FFF78EFC0646FF2D03D13B485A
:10081000006890F822503A4850F8254024B93046F4
:10082000FFF784FC4320E8E7012C04D13046FFF7B2
:100830007DFC3D20E1E714F8240F3249085C617823
:10084000884321782F4A505414F824091146085C33
:1008500030B994F826102C48007888432A4908704B
:100860000020E06184F8200084F821002748007807
:10087000FF2804D225480078401C244908703046DF
:10088000FFF754FC00F056F9FFF74CFC06461F48F2
:10089000007820B11D480078401E1C490870204691
:1008A00000F040F81A480078401E194908700020EE
:1008B000134941F82500A06930B9002061698861B9
:1008C00014496069086005E0D4E905014861D4E98C
:1008D000051088611048006860610F4804600FA02F
:1008E000A0623046FFF722FC0D480078012801D1B4
:1008F00000F0D0F9002080E72C000020400000200C
:100900006402002031000020300000202D00002073
:100910003A0000204C000020440000203F0000006E
:1009200039000020704770472DE9F04106460F4618
:1009300014464FF000081548007818B112202070B6
:10094000BDE8F081FFF7EEFB8046FF2E03D1104893
:10095000006890F822600F4850F826502DB94046A4
:10096000FFF7E4FB43202070EAE7012D05D1404664
:10097000FFF7DCFB43202070E2E7AF624046FFF761
:10098000D5FB0020207000BFDAE700002C0000201B
:1009900040000020640200207047000070B504464B
:1009A00010464FF080750560051F28462C60214ECB
:1009B000051F28462E604FF01236051F28462E6070
:1009C0004FF00336051F28462E604FF00236051FF4
:1009D00028462E607610051F28462E60051F2846E3
:1009E00029604FF01136051F28462E604FF0103653
:1009F000051F28462E604FF00936051F28462E6039
:100A00004FF00836051F28462E604FF00736051FA9
:100A100028462E604FF00636051F28462E604FF000
:100A20000536051F28462E604FF00436051F284660
:100A30002E6070BD610E00087047000030B585B0B3
:100A4000684600F05FFA64220198B0FBF2F1B1F160
:100A5000807F00D31DE021F07F40401E4FF0E02258
:100A6000506150170F22002807DA13071D0E0A4B9A
:100A700000F00F04241F1D5503E013071C0E074B45
:100A80001C5400BF00204FF0E0229061072010614D
:100A900000BF05B030BD000018ED00E000E400E04C
:100AA00070B500251F48007801283AD11E48046817
:100AB00033E0FFF737FB0546E06950B3E069401EBD
:100AC000E061E06928BB94F8200000F0370040B1F5
:100AD00014F8200F00F0C800207001206070203C46
:100AE00002E0002084F8210094F8200000F00800C3
:100AF00078B92434A0780D49097808430B49087067
:100B000020780B49085C6178084314F82419084AD6
:100B1000505464692846FFF709FB94F822003F28E7
:100B2000C7D170BD390000204C00002030000020EB
:100B300031000020704770470020064908700649C0
:100B40000870064908700649087006490860064999
:100B5000086070472C0000202D0000203A00002083
:100B600039000020280000203C00002000210A4A13
:100B70001170002004E00021084A1154411CC8B241
:100B80000828F8D30021064A1170064A1170064A57
:100B90001160064A116070473000002031000020CB
:100BA0002E0000202F0000204800002040000020E0
:100BB00070B54FF4F271194800F062F84FF480718B
:100BC000174800F05DF8002413E0601CC5B204EB88
:100BD000440000EBC400114901EB800305EB450024
:100BE00000EBC50001EB80065E610EA09862601C00
:100BF000C4B20A2CE9D304EB440000EBC40007495B
:100C000001EB80030020586106A09862002006498D
:100C1000086002480549086070BD000064030020B8
:100C2000640200203F0000004C000020440000202F
:100C300000B587B00320002180220A4BCDE90132A4
:100C4000CDE903104FF6FF703F23074A0090074895
:100C5000FFF774FD06AA06A13F20FFF765FE07B067
:100C600000BD00006400002060020020390E000872
:100C700075432F4F532D49492049646C650000008E
:100C800004E0002200F8012B4A1E91B20029F8D19D
:100C90007047000010B50024FFF744FA04461048DE
:100CA0000078C0B90F480078A8B900F027F80E48BE
:100CB0000E49097850F821000D4908600B4800786A
:100CC0000C490978884206D00B480068401C0A4944
:100CD0000860FFF742FA2046FFF728FA10BD00002F
:100CE0002C0000202D000020640200202F00002096
:100CF000480000202E000020280000200649074A56
:100D00001278885C0649095C034A515C01EBC0011A
:100D1000044A117070470000FC1C000830000020DD
:100D2000310000202F0000202DE9F84F05460E4627
:100D300017469846DDE90BABDDF8289000200090BF
:100D4000FFF7F0F9009035480468002C61D00834B2
:100D50003249E06808600098FFF7E8F944F8086C49
:100D6000A576002020766076606144F804ACC4F873
:100D700004902760A4F808B0A4F80A80E077E8108F
:100D8000207705F00700E076217F01208840A077DA
:100D9000E17E01208840607721A02062083C204647
:100DA000FFF7CAFCFFF7BEF900901E4840F8254047
:100DB0000098FFF7BBF92046FFF716FDFFF7B2F9E1
:100DC00000901948006860610020A0611648006822
:100DD00010B1154800688461134804602434A07879
:100DE0001249097808431149087020781049085CB5
:100DF0006178084314F824190D4A50540D480078BE
:100E0000401C0C4908700098FFF790F90020BDE8DD
:100E1000F88F0098FFF78AF94220F8E74400002095
:100E20003F000000640200204C0000203000002041
:100E3000310000203A000020002400BF00BFFFF76F
:100E400071F9044605480068401C044908602046C2
:100E5000FFF76CF9FFF767FDF1E700003C000020A9
:100E600010B504480068FFF797FDFF20FFF7BEFCB0
:100E700010BD00004000002029B1064AD26902439B
:100E8000044BDA6104E0034AD2698243014BDA6120
:100E9000704700000010024029B1064A126902435F
:100EA000044B1A6104E0034A12698243014B1A6140
:100EB000704700000010024029B1064A92690243BF
:100EC000044B9A6104E0034A92698243014B9A61A0
:100ED000704700000010024029B1064AD268024360
:100EE000044BDA6004E0034AD2688243014BDA60C3
:100EF000704700000010024010B50121FD20FFF7EF
:100F0000DBFF10BD30B500210022002400232D4D51
:100F10006D6805F00C0121B1042905D0082923D101
:100F200005E0294D056022E0274D05601FE0254DB5
:100F30006D6805F47012234D6D6805F48034022548
:100F400005EB92421CB9214D554305600BE01D4D48
:100F50006D6805F400351DB11C4D5543056002E078
:100F6000194D5543056002E0174D056000BF00BFF5
:100F7000144D6D6805F0F0010909154D6B5C0568AD
:100F8000DD4045600F4D6D6805F4E061090A104DC4
:100F90006B5C4568DD4085600A4D6D6805F4605105
:100FA000C90A0B4D6B5C4568DD40C560054D6D6839
:100FB00005F44041890B074D6B5CC568B5FBF3F543
:100FC000056130BD0010024000127A0000093D00AA
:100FD000000000201000002010B54FF42F711C48B5
:100FE00000F01FFC10211B48FFF708FA20211948C8
:100FF000FFF702FA4FF42F71154800F014FC4FF47C
:1010000000511548FFF7FAF94FF480411248FFF7F5
:10101000F3F94FF42F710E4800F007FC4FF4807184
:101020000C48FFF7EBF94FF400610A48FFF7E4F9C9
:101030004FF42F71064800F0FAFB4FF48051054839
:10104000FFF7DCF94FF400410248FFF7D5F910BD76
:10105000000400400008014000100140704710B536
:1010600000F002F810BD00000CB5002001900090C7
:101070003348006840F480303149086000BF304890
:10108000006800F4003000900198401C0190009826
:1010900018B90198B0F5A06FF1D12948006800F4A3
:1010A000003010B10120009001E000200090009875
:1010B000012843D12348006840F01000214908600E
:1010C0000846006820F0030008600846006840F009
:1010D000020008601A48406819494860084640689C
:1010E00048600846406840F48060486008464068B0
:1010F00020F47C1048600846406840F4E8104860DE
:101100000846006840F08070086000BF0C48006826
:1011100000F000700028F9D00948406820F0030072
:10112000074948600846406840F00200486000BF38
:101130000348406800F00C000828F9D10CBD0000FD
:101140000010024000200240042808D14FF0E021A6
:10115000096941F004014FF0E022116107E04FF00E
:10116000E021096921F004014FF0E022116170478C
:1011700010B5FFF78DFAFFF793FCFFF79BFA10BD50
:1011800010B51348006840F0010011490860084696
:101190004068104908400E494860084600680E49FA
:1011A00008400B4908600846006820F48020086069
:1011B0000846406820F4FE0048604FF41F00886035
:1011C000FFF74DFF4FF000600449086010BD0000BC
:1011D000001002400000FFF8FFFFF6FE08ED00E0FF
:1011E00030B589B005460C4601210220FFF744FEC8
:1011F00001210820FFF760FE01210420FFF75CFEBB
:1012000018208DF823000320ADF820008DF822006F
:1012100008A92B48FFF71CF818208DF82300C020E0
:10122000ADF8200003208DF8220008A92548FFF71B
:101230000FF8ADF81850ADF814400020ADF81A00C2
:10124000ADF8160005A9204800F0F4FA7020ADF8BA
:1012500004000120ADF806000020ADF80A00ADF84A
:101260000C0001A9184800F081F901A9164800F006
:10127000D3F901A9144800F02FFA01A9124800F08F
:1012800085FA0821104800F0BDF908210E4800F049
:1012900015FA08210C4800F06FFA10210A4800F0F6
:1012A000B3FA0121084800F025F80121064800F0B2
:1012B0003FF80121044800F02FF809B030BD0000CC
:1012C000000C0140000801400004004010B501215D
:1012D000064800F031F940B10121044800F019F846
:1012E00003480088401C0249088010BD00080040E7
:1012F0005400002021B1028842F08002028004E004
:1013000002884FF67F731A4002807047CA430282F8
:101310007047CA430282704721B1028842F001023D
:10132000028004E002884FF6FE731A400280704784
:1013300031B1B0F8442042F40042A0F8442005E066
:10134000B0F84420C2F30E02A0F844207047000019
:1013500010B504466848844208D10121C014FFF743
:10136000BBFD0021E014FFF7B7FDC4E0B4F1804FEE
:1013700008D101210846FFF78FFD00210120FFF76A
:101380008BFDB8E05D48844208D101210220FFF7BF
:1013900083FD00210220FFF77FFDACE05848844226
:1013A00008D101210420FFF777FD00210420FFF779
:1013B00073FDA0E05348844208D101210820FFF7C3
:1013C0006BFD00210820FFF767FD94E04E48844242
:1013D00008D101211020FFF75FFD00211020FFF749
:1013E0005BFD88E04948844208D101212020FFF7B5
:1013F00053FD00212020FFF74FFD7CE0444884424C
:1014000008D101214014FFF767FD00216014FFF7A8
:1014100063FD70E03F48844209D10121C804FFF711
:101420005BFD00214FF40020FFF756FD63E03A48D2
:10143000844209D101210805FFF74EFD00214FF438
:101440008010FFF749FD56E03448844209D101215C
:101450004805FFF741FD00214FF40010FFF73CFD68
:1014600049E02F48844208D101214020FFF714FDB4
:1014700000214020FFF710FD3DE02A48844208D1BA
:1014800001218020FFF708FD00218020FFF704FDE7
:1014900031E02548844208D101218015FFF7FCFC8A
:1014A0000021A015FFF7F8FC25E02048844209D16F
:1014B00001210804FFF710FD00214FF48030FFF7F1
:1014C0000BFD18E01A48844209D101214804FFF7B6
:1014D00003FD00214FF40030FFF7FEFC0BE0154840
:1014E000844208D101218804FFF7F6FC00214FF463
:1014F0008020FFF7F1FC10BD002C014000040040EB
:1015000000080040000C00400010004000140040A3
:1015100000340140004C01400050014000540140A3
:1015200000180040001C0040002000400040014026
:10153000004401400048014030B50246002000232D
:101540000024158A05EA0103958905EA010413B10F
:101550000CB1012000E0002030BD1AB183890B439B
:10156000838102E083898B438381704770B50024B7
:1015700000220023058C4FF6FE7635400584028C50
:101580008388048B4FF68F752C40B51E2C400D8838
:101590002C43751E2A400D892A434D882A43144D39
:1015A000A8420BD0134DA84208D0134DA84205D035
:1015B000124DA84202D0124DA84213D14FF6F77532
:1015C0002A404D892A434FF6FB752A408D882A43CD
:1015D0004FF6FF652B404FF6FF552B408D892B436F
:1015E000CD892B4383800483CD888586028470BD9A
:1015F000002C014000340140004001400044014003
:10160000004801400A460021018B4FF6F77319404C
:10161000114301837047000070B5002400220023AD
:10162000058C4FF6EF7635400584028C8388048B59
:1016300048F6FF752C404FF6FF452C400D884FF6BD
:10164000FF7606EA05252C434FF6DF752A400D8903
:1016500006EA05152A434D8806EA05152A43154D65
:10166000A84202D0144DA8421DD14FF67F752A40E2
:101670004D894FF6FF7606EA05152A434FF6BF75EA
:101680002A408D8806EA05152A434FF6FF352B4080
:101690004FF2FF752B408D8906EA85052B43CD89D6
:1016A00006EA85052B4383800483CD880587028461
:1016B00070BD0000002C0140003401400A460021AA
:1016C000018B4FF2FF7319404FF6FF7303EA0223B9
:1016D000194301837047000070B5002400220023E5
:1016E000058C4FF6FF6635400584028C8388848B19
:1016F0004FF68F752C404FF6FC752C400D882C430F
:101700004FF6FF552A400D894FF6FF7606EA05256C
:101710002A434D8806EA05252A43154DA84202D0E2
:10172000144DA8421DD14FF2FF752A404D894FF646
:10173000FF7606EA05252A434FF6FF352A408D88B5
:1017400006EA05252A434EF6FF752B404DF6FF7538
:101750002B408D8906EA05152B43CD8906EA051530
:101760002B4383808483CD888587028470BD0000ED
:10177000002C0140003401400A460021818B4FF6C5
:10178000F7731940114381837047000070B5002240
:1017900000230024058C4EF6FF7635400584038C2B
:1017A0008488828B48F6FF752A404FF6FF452A4011
:1017B0000D884FF6FF7606EA05252A434DF6FF759C
:1017C0002B400D8906EA05352B434D8806EA053581
:1017D0002B430B4DA84202D00A4DA84208D14BF62C
:1017E000FF752C408D894FF6FF7606EA85152C4350
:1017F00084808283CD88A0F84050038470BD0000AF
:10180000002C0140003401400A460021818B4FF238
:10181000FF7319404FF6FF7303EA022319438183D4
:101820007047818670470187704781877047A0F8AD
:1018300040107047002202881D4B98420ED01D4B6D
:1018400098420BD0B0F1804F08D01B4B984205D086
:101850001A4B984202D01A4B984204D14FF68F731C
:101860001A404B881A43174B984207D0164B9842A0
:1018700004D04FF6FF431A40CB881A4302808B886E
:1018800083850B8803850A4B98420BD0094B9842FD
:1018900008D00E4B984205D00D4B984202D00D4B0C
:1018A000984201D10B7A038601238382704700009E
:1018B000002C0140003401400004004000080040BA
:1018C000000C0040001000400014004000400140A7
:1018D000004401400048014010B540F225511D4828
:1018E00000F098F810B31B4800F050F9C4B21A4841
:1018F000008800F40040C8B91748008800F4804010
:1019000060B10A2C03D000201349088020E012485F
:10191000008840F400401049088019E00D2C06D1E1
:101920000D48008840F480400B49088010E00A48C8
:101930000088C0F30D0009490C5407480088401C7A
:101940000549088008460088C72801DD0020088076
:1019500010BD000000380140600000204807002052
:1019600021B1828942F40052828104E082894DF6DD
:10197000FF731A408281704710B5044620488442A4
:1019800009D101218803FFF7A7FA00214FF4804015
:10199000FFF7A2FA32E01B48844209D10121480432
:1019A000FFF77AFA00214FF40030FFF775FA25E0CF
:1019B0001548844209D101218804FFF76DFA0021FE
:1019C0004FF48020FFF768FA18E01048844209D1EC
:1019D0000121C804FFF760FA00214FF40020FFF74F
:1019E0005BFA0BE00A48844208D101210805FFF7A1
:1019F00053FA00214FF48010FFF74EFA10BD00009B
:101A0000003801400044004000480040004C0040C5
:101A10000050004070B5024600240023002500203D
:101A200040F66A16B14200D100BFC1F3421501F081
:101A30001F03012606FA03F3012D02D196893340D4
:101A400006E0022D02D1168A334001E0968A334027
:101A50000C12012606FA04F41688344013B10CB1B6
:101A6000012000E0002070BDF0B5034600240026F0
:101A70000025002040F66A17B94200D100BF184681
:101A8000C1F3421401F01F06012707FA06F5012CE5
:101A900001D10C3004E0022C01D1103000E01430F0
:101AA0001AB107682F43076002E00768AF43076079
:101AB000F0BD00002DE9F04786B005460E46002433
:101AC000A24600BFA1460027B08900B100BF2F4643
:101AD0002C8A4CF6FF700440F08804432C82AC89B9
:101AE0004EF6F3100440B0883189084371890843E9
:101AF0000443AC81AC8A4FF6FF400440B0890443F4
:101B0000AC8201A8FFF7FEF91F48874202D1DDF839
:101B100010A001E0DDF80CA0A88900F4004040B15D
:101B20000AEBCA0000EB0A1031684900B0FBF1F87B
:101B300007E00AEBCA0000EB0A1031688900B0FB2D
:101B4000F1F86420B8FBF0F004012009642101FBE6
:101B50001089A88900F4004040B1322000EBC90090
:101B6000B0FBF1F000F00700044308E0322000EB86
:101B700009106421B0FBF1F000F00F0004432C8148
:101B800006B0BDE8F08700000038014001468888B3
:101B9000C0F30800704700BFFEE702E008C8121F4C
:101BA00008C1002AFAD170477047002001E001C146
:101BB000121F002AFBD1704710B56FF00400FFF729
:101BC000C3FA104800681049B0FBF1F00F490870E3
:101BD0000C4800680C49B0FBF1F442F21070444329
:101BE0000A200B4908804FF0E020006940F0020015
:101BF0004FF0E021086108464461006940F00100AF
:101C0000086110BD1400002000127A005600002068
:101C10005800002008B54FF4A060FEF70BFD1E2011
:101C20008DF8000000208DF801008DF802000120E1
:101C30008DF803006846FEF7C5FC08BDFEF704FDFD
:101C4000FEF7DAFAFEF7FAFEFFF7B6FFFFF7C4F980
:101C500000BFFEE710B586B00446012144F204003F
:101C6000FFF72AF92348FFF787FE4FF40070ADF81D
:101C7000140003208DF8160018208DF8170005A910
:101C80001D48FEF7E5FA4FF48060ADF8140004201B
:101C90008DF8170005A91848FEF7DAFA25208DF807
:101CA000000003208DF801008DF8020001208DF85E
:101CB00003006846FEF786FC01940020ADF808009A
:101CC000ADF80A00ADF80C00ADF810000C20ADF82E
:101CD0000E0001A90748FFF7EDFE012240F2255151
:101CE0000448FFF7C1FE01210248FFF739FE06B0A4
:101CF00010BD000000380140000801400000010054
:101D000002000100030001000200010004000100C4
:101D100002000100030001000200010005000100B3
:101D200002000100030001000200010004000100A4
:101D30000200010003000100020001000600010092
:101D40000200010003000100020001000400010084
:101D50000200010003000100020001000500010073
:101D60000200010003000100020001000400010064
:101D70000200010003000100020001000700010051
:101D80000200010003000100020001000400010044
:101D90000200010003000100020001000500010033
:101DA0000200010003000100020001000400010024
:101DB0000200010003000100020001000600010012
:101DC0000200010003000100020001000400010004
:101DD00002000100030001000200010005000100F3
:101DE00002000100030001000200010004000100E4
:101DF0000200010003000100020001001C1E000897
:101E000000000020640000009A1B0008801E0008EB
:101E100064000020AC0B0000AA1B000800000000BA
:101E2000010203040102030406070809020406086C
:101E300000A24A04000000000000000001020304A8
:101E40000607080900000000000000000000000074
:101E50000000000000000000000000000000000082
:101E60000000000000000000000000000000000072
:101E70000000000000000000000000000000000062
:04000005080000ED02
:00000001FF
